:100000000C94B6000C94C0000C94C0000C94C0007A
:100010000C94C0000C94C0000C94C0000C94C00060
:100020000C94C0000C94C0000C94C0000C94C00050
:100030000C94C0000C94C0000C94C0000C94C00040
:100040000C94C0000C94C0000C94C0000C94C00030
:100050000C94C0000C94C0000C94C0000C94C00020
:100060000C94C0000C94C0000C94C0000C94C00010
:100070000C94C0000C94C0000C94C0000C94C00000
:100080000C94C0000C94C0000C94C0000C94C000F0
:100090000C94C0000C94C0000C94C0000C94C000E0
:1000A0000C94C0000C94C0000C94C0000C94C000D0
:1000B0000C94C0000C94C0000C94C0000C94C000C0
:1000C0000C94C0000C94C0000C94C0000C94C000B0
:1000D0000C94C0000C94C0000C94C0000C94C000A0
:1000E0000C94C0000C94C0000C94C0000C94C00090
:1000F0000C94C0000C94C0000C94C0000C94C00080
:100100000C94C0000C94C0000C94C0000C94C0006F
:100110000C94C0000C94C0000C94C0000C94C0005F
:100120000C94C0000C94C0000C94C0000C94C0004F
:100130000C94C0000C94C0000C94C0000C94C0003F
:100140000C94C0000C94C0000C94C0000C94C0002F
:100150000C94C0000C94C0000C94C0000C94C0001F
:100160000C94C0000C94C0000C94C00011241FBE5D
:10017000CFEFCDBFDFE2DEBF0E94CE000C94EE00D9
:100180000C9400008FEF80934006E4E4F6E0808159
:100190008F7E808380818F7D808308950E94C2003E
:1001A000E4E4F6E0808180618083808180628083E6
:1001B0002FE38DE093E0215080409040E1F700C0B4
:1001C000000080818F7D80832FE78AE196E02150B7
:1001D00080409040E1F700C00000E7CFF894FFCFE7
:00000001FF
